:100000000C943E000C9453000C9453000C94530039
:100010000C9453000C9453000C9453000C94530014
:100020000C9453000C9453000C9453000C94530004
:100030000C9453000C9453000C9453000C945300F4
:100040000C9453000C9453000C9453000C945300E4
:100050000C9453000C9453000C9453000C945300D4
:100060000C9453000C9453000C9453000C945300C4
:100070000C9453000C9453000C94530011241FBE95
:10008000CFEFD0E1DEBFCDBF11E0A0E0B1E0EAE903
:10009000F3E002C005900D92A232B107D9F70E9499
:1000A00055000C94CB010C940000CF93DF93CDB797
:1000B000DEB7A0970FB6F894DEBF0FBECDBF86E0C7
:1000C0008093C2001092C50080E18093C40088E054
:1000D0008093C10080E2E1E0F1E0DE011196019041
:1000E0000D928A95E1F780EE8AB99FEF97B98BB1AF
:1000F0008F7980648BB911B892B980E28093B30094
:1001000082E48093B00081E08093B1008BB18F795D
:1001100080648BB98AEE88B9B99BFECFB99AB99B36
:10012000FECFB99AB99BFECFB99AB99BFECFB99AC7
:100130008AEE88B9B99BFECFB99AB99BFECFB99A1E
:10014000B99BFECFB99AB99BFECFB99A8AEE88B90E
:10015000B99BFECFB99AB99BFECFB99AB99BFECF96
:10016000B99AB99BFECFB99A8AEE88B9B99BFECFEE
:10017000B99AB99BFECFB99AB99BFECFB99AB99BF0
:10018000FECFB99A8AEE88B9B99BFECFB99AB99BCE
:10019000FECFB99AB99BFECFB99AB99BFECFB99A57
:1001A0008AEE88B9B99BFECFB99AB99BFECFB99AAE
:1001B000B99BFECFB99AB99BFECFB99A8AEE88B99E
:1001C000B99BFECFB99AB99BFECFB99AB99BFECF26
:1001D000B99AB99BFECFB99A8AEE88B9B99BFECF7E
:1001E000B99AB99BFECFB99AB99BFECFB99AB99B80
:1001F000FECFB99A8BB18F7980628BB98AEE88B9BC
:10020000B99BFECFB99AB99BFECFB99AB99BFECFE5
:10021000B99AB99BFECFB99A8AEE88B9B99BFECF3D
:10022000B99AB99BFECFB99AB99BFECFB99AB99B3F
:10023000FECFB99A8AEE88B9B99BFECFB99AB99B1D
:10024000FECFB99AB99BFECFB99AB99BFECFB99AA6
:100250008AEE88B9B99BFECFB99AB99BFECFB99AFD
:10026000B99BFECFB99AB99BFECFB99A1092000103
:1002700099EA25E880910001803208F057C098B9CA
:10028000B99BFECFB99AB99BFECFB99AB99BFECF65
:10029000B99AB99BFECFB99A80910001E1E0F0E0F4
:1002A000EC0FFD1FE80FF11D808188B9B99BFECFCF
:1002B000B99AB99BFECFB99AB99BFECFB99AB99BAF
:1002C000FECFB99A28B9B99BFECFB99AB99BFECF98
:1002D000B99AB99BFECFB99AB99BFECFB99A8091D2
:1002E000000188B9B99BFECFB99AB99BFECFB99AE4
:1002F000B99BFECFB99AB99BFECFB99A5D9818B851
:10030000B99BFECFB99AB99BFECFB99AB99BFECFE4
:10031000B99AB99BFECFB99A8BB18F7980628BB9AC
:10032000809100018F5F80930001A4CF8CE488B995
:10033000B99BFECFB99AB99BFECFB99AB99BFECFB4
:10034000B99AB99BFECFB99A18B8B99BFECFB99AA2
:10035000B99BFECFB99AB99BFECFB99AB99BFECF94
:10036000B99A18B8B99BFECFB99AB99BFECFB99A82
:10037000B99BFECFB99AB99BFECFB99A5D9818B8D0
:1003800017B886B18823E9F380B18093C60086B19F
:0A0390008111FDCFF6CFF894FFCFE6
:10039A00FFA9008582A200BD00088580A9FF858289
:1003AA00A9008582E8D0F0E608A508C910D0E6F0D1
:0203BA00FE0043
:00000001FF
